:100000000C942A000C943C000C943C000C943C0092
:100010000C943C000C943C000C94B8030C94E30347
:100020000C940E040C9439040C947D030C9452032C
:100030000C943C000C94A6040C94CF040C94F8048B
:100040000C943C000C94DE020C943C000C940703CE
:100050000C943C0011241FBECFE5D8E0DEBFCDBF1D
:1000600020E0A0E6B0E001C01D92A737B207E1F79B
:100070000E943E000C9449050C940000CF93DF933E
:10008000CDB7DEB760970FB6F894DEBF0FBECDBF19
:1000900040E060E083E00E94EB0141E061E083E04A
:1000A0000E94EB0183E390E00E94640419821A82AB
:1000B00081E08B831C8240E050E061E070E08D8144
:1000C0009E810E9461010E9476048111FCCF81E033
:1000D0000E94720480E190E00E94D6020E947204A5
:1000E00012E00E9486048823E1F30E947604E82E41
:1000F00023E0821346C0812F0E94720465E0CE0186
:100100000C960E948B0465E0CE0107960E948B043A
:1001100020E013C0822F90E0ECE0F0E0EC0FFD1F38
:10012000E80FF91F3081E7E0F0E0EC0FFD1FE80F6A
:10013000F91F8081381305C02F5F253058F380E008
:1001400001C081E0882371F019C0812F90E0ECE0BC
:10015000F0E0EC0FFD1FE80FF91F60810E94CB0259
:100160001F5F01C010E0153080F360E080E190E097
:100170000E94CB0286E00E94720403C087E00E94C6
:10018000720485E0E81619F098E0E91292C065E083
:10019000CE0107960E948B04F12C0DC00F2D10E0AC
:1001A000C8010E94D602ECE0F0E0EC0FFD1FE00F6A
:1001B000F11F8083F39424E02F1580F720E01AC00C
:1001C000822F90E0E7E0F0E0EC0FFD1FE80FF91F51
:1001D0003081ECE0F0E0EC0FFD1FE80FF91F8081AB
:1001E000381739F0809160008F5F8093600081E064
:1001F00004C02F5F253020F380E0811157C080912B
:100200006000833008F052C086E00E94720488E0EB
:10021000E81243C081E08C8384E68D8349815A8152
:100220006B8171E09E810E949B019FEB26EC8DE229
:10023000915020408040E1F700C000001C824981BD
:100240005A816B8170E08D819E810E949B019FEBA2
:1002500027E289E0915020408040E1F700C0000093
:1002600082E08C8349815A816B8172E08D819E810D
:100270000E949B019FEB26EC8DE291502040804034
:10028000E1F700C000001C8249815A816B8170E057
:100290008D819E810E949B010CC095E0E91209C0EE
:1002A0006FEF80E190E00E94CB0203C087E00E94E4
:1002B000720480E190E00E94D602182F0E9472041E
:1002C00010CFFF920F931F93CF93DF9300D000D0F6
:1002D00000D0CDB7DEB76B839E83052F142F41E08E
:1002E000652F812F0E94EB01FB8041E06F2D812F54
:1002F0000E94EB0140E0602F812F0E945B0240E0F2
:100300006F2D812F0E945B021E8141E0612F81E0F1
:100310000E94EB0140E0612F81E00E945B02269683
:100320000FB6F894DEBF0FBECDBFDF91CF911F9106
:100330000F91FF9008951F93CF93DF9300D000D0CB
:1003400000D0CDB7DEB749835A836B838D8371307C
:1003500081F018F07230C9F023C0198140E06A8141
:10036000812F0E945B0240E06B81812F0E945B0223
:1003700017C0198141E06A81812F0E945B0240E031
:100380006B81812F0E945B020BC0198140E06A8162
:10039000812F0E945B0241E06B81812F0E945B02F2
:1003A0008D812FEF829FC001112464E670E00E94CE
:1003B0002105162F0E9430030E944803812F0E94BE
:1003C000460326960FB6F894DEBF0FBECDBFDF9171
:1003D000CF911F910895411138C0813091F028F0DC
:1003E0008230D9F0833029F108952AB381E090E07A
:1003F00002C0880F991F6A95E2F7809582238ABB15
:10040000089527B381E090E002C0880F991F6A9594
:10041000E2F78095822387BB089524B381E090E0C2
:1004200002C0880F991F6A95E2F78095822384BBEA
:10043000089521B381E090E002C0880F991F6A956A
:10044000E2F78095822381BB0895413099F5813090
:1004500089F028F08230C9F0833011F108952AB371
:1004600081E090E002C0880F991F6A95E2F7822B25
:100470008ABB089527B381E090E002C0880F991FDE
:100480006A95E2F7822B87BB089524B381E090E060
:1004900002C0880F991F6A95E2F7822B84BB0895EA
:1004A00021B381E090E002C0880F991F6A95E2F7BE
:1004B000822B81BB08954130A1F5813089F028F06D
:1004C0008230C9F0833011F108952BB381E090E0C0
:1004D00002C0880F991F6A95E2F7822B8BBB0895A3
:1004E00028B381E090E002C0880F991F6A95E2F777
:1004F000822B88BB089525B381E090E002C0880F6D
:10050000991F6A95E2F7822B85BB089522B381E09B
:1005100090E002C0880F991F6A95E2F7822B82BB98
:100520000895411137C0813091F028F08230D9F020
:10053000833029F108952BB381E090E002C0880F49
:10054000991F6A95E2F7809582238BBB089528B3A3
:1005500081E090E002C0880F991F6A95E2F78095CC
:10056000822388BB089525B381E090E002C0880F04
:10057000991F6A95E2F78095822385BB089522B37F
:1005800081E090E002C0880F991F6A95E2F780959C
:10059000822382BB0895E199FECF8EBB6DBB8CB3E5
:1005A00084608CBB8CB382608CBB0895E199FECFD4
:1005B0008EBB8CB381608CBB8DB308951F920F925C
:1005C0000FB60F9211242F933F934F935F936F9326
:1005D0007F938F939F93AF93BF93EF93FF93E0919C
:1005E0006100F0916200309709F00995FF91EF9159
:1005F000BF91AF919F918F917F916F915F914F913B
:100600003F912F910F900FBE0F901F9018951F9242
:100610000F920FB60F9211242F933F934F935F9336
:100620006F937F938F939F93AF93BF93EF93FF93BA
:10063000E0916300F0916400309709F00995FF9113
:10064000EF91BF91AF919F918F917F916F915F914A
:100650004F913F912F910F900FBE0F901F901895C3
:1006600083B7806483BF83B7886083BF83B78F7E7F
:1006700083BF83B7806283BF83B78E7F83BF83B717
:10068000826083BF83B78B7F83BF08958CBF08953B
:100690001CBE089588B7816088BF089588B78260BE
:1006A00088BF08951F920F920FB60F9211242F93B7
:1006B0003F934F935F936F937F938F939F93AF93EA
:1006C000BF93EF93FF93E0916500F0916600309740
:1006D00009F009950E944A03FF91EF91BF91AF91F4
:1006E0009F918F917F916F915F914F913F912F914A
:1006F0000F900FBE0F901F9018951F920F920FB67C
:100700000F9211242F933F934F935F936F937F9397
:100710008F939F93AF93BF93EF93FF93E091670005
:10072000F0916800309709F009950E944E03FF91FF
:10073000EF91BF91AF919F918F917F916F915F9159
:100740004F913F912F910F900FBE0F901F901895D2
:1007500088B7846088BF089588B7806188BF08958E
:1007600088B7886088BF089588B7806288BF089579
:100770001F920F920FB60F9211242F933F934F9316
:100780005F936F937F938F939F93AF93BF93EF93F9
:10079000FF93E0916900F0916A00309709F00995A4
:1007A0000E94B403FF91EF91BF91AF919F918F9100
:1007B0007F916F915F914F913F912F910F900FBE5D
:1007C0000F901F9018951F920F920FB60F92112441
:1007D0002F933F934F935F936F937F938F939F9349
:1007E000AF93BF93EF93FF93E0916F00F091700090
:1007F000309709F009950E94AC03FF91EF91BF91EA
:10080000AF919F918F917F916F915F914F913F91A8
:100810002F910F900FBE0F901F9018951F920F925F
:100820000FB60F9211242F933F934F935F936F93C3
:100830007F938F939F93AF93BF93EF93FF93E09139
:100840006B00F0916C00309709F009950E94B0039D
:10085000FF91EF91BF91AF919F918F917F916F9198
:100860005F914F913F912F910F900FBE0F901F906E
:1008700018951F920F920FB60F9211242F933F934A
:100880004F935F936F937F938F939F93AF93BF9398
:10089000EF93FF93E0916D00F0916E00309709F0B7
:1008A00009950E94A803FF91EF91BF91AF919F918D
:1008B0008F917F916F915F914F913F912F910F9009
:1008C0000FBE0F901F90189589B990BD8AB18B7F8C
:1008D0008AB986E880BD8AB180618AB98AB18860A8
:1008E0008AB908955D9BFECF8CB908955F9BFECFBA
:1008F0005C9906C05B9906C05A9906C08CB10895F0
:100900008FEF08958FEF08958FEF08958BB1881FB3
:100910008827881F0895EF92FF920F931F93CF931C
:10092000DF937C01D62FC0E008C087010C0F111D9A
:100930000E947604F8018083CF5FCD17B0F3DF917A
:10094000CF911F910F91FF90EF9008951F920F92FA
:100950000FB60F9211242F933F934F935F936F9392
:100960007F938F939F93AF93BF93EF93FF93E09108
:100970007500F0917600309709F00995FF91EF919D
:10098000BF91AF919F918F917F916F915F914F91A7
:100990003F912F910F900FBE0F901F9018951F92AF
:1009A0000F920FB60F9211242F933F934F935F93A3
:1009B0006F937F938F939F93AF93BF93EF93FF9327
:1009C000E0917100F0917200309709F00995FF9164
:1009D000EF91BF91AF919F918F917F916F915F91B7
:1009E0004F913F912F910F900FBE0F901F90189530
:1009F0001F920F920FB60F9211242F933F934F9394
:100A00005F936F937F938F939F93AF93BF93EF9376
:100A1000FF93E0917300F0917400309709F009950D
:100A2000FF91EF91BF91AF919F918F917F916F91C6
:100A30005F914F913F912F910F900FBE0F901F909C
:100A4000189597FB072E16F4009407D077FD09D070
:100A50000E94350507FC05D03EF4909581959F4F87
:100A60000895709561957F4F0895AA1BBB1B51E1B6
:100A700007C0AA1FBB1FA617B70710F0A61BB70B0E
:100A8000881F991F5A95A9F780959095BC01CD01B3
:060A90000895F894FFCF69
:00000001FF
