S0110000536C6176655F4D43552E73726563D4
S11300000C942A000C943C000C943C000C943C008E
S11300100C943C000C943C000C9433040C945E044B
S11300200C9489040C94B4040C94CB030C94A00396
S11300300C943C000C9421050C944A050C94730513
S11300400C943C000C9451030C943C000C943C0024
S11300500C943C0011241FBECFE5D8E0DEBFCDBF19
S113006020E0A0E6B0E001C01D92A737B207E1F797
S11300700E9415010C94C4050C9400008091610049
S11300808F3041F4809162008F5F80936200109200
S1130090610008958F5F809361000895CF93DF938B
S11300A0EC0166E00E9406051D82DF91CF91089560
S11300B0DC0190E00DC0292F30E0FD01E20FF31FB9
S11300C04081FB01E20FF31F2081421305C09F5FB3
S11300D0953088F381E0089580E008950F931F938D
S11300E0CF938C01C0E00FC08C2F90E0F801E80F93
S11300F0F91F60810E943E038FE19EE40197F1F7AE
S113010000C00000CF5FC63078F360E080E190E08B
S11301100E943E038FE19EE40197F1F700C00000C6
S1130120CF911F910F910895EF92FF920F931F9318
S1130130CF937C01C0E010C08C2F90E08701080FA2
S1130140191F0E944903F80180838FE19EE40197FF
S1130150F1F700C00000CF5FC63070F3F7011582DD
S1130160CF911F910F91FF90EF9008950E94F60395
S11301708EE390E00E942C0484E294EF0E94150424
S11301800E941C040E947A030E94E3010E94EE0173
S1130190809162008C33E0F30E94F40110926000BD
S11301A0109262000E9412040895CF93DF93EC0131
S11301B00E94F6038EE390E00E942C0484E294EF04
S11301C00E9415040E941C040E947A0381E08B8320
S11301D0CE010E942002809162008F30E0F31B82E6
S11301E0CE010E942002809162008331E0F382E01C
S11301F08B83CE010E942002809162008232E0F360
S11302001B82CE010E942002109262000E941204FE
S1130210DF91CF91089580E190E00E94490391E03D
S11302208F3F09F090E0892F0895CF93DF93CDB7E6
S1130230DEB768970FB6F894DEBF0FBECDBF40E0BF
S113024060E083E00E945E0241E061E083E00E949E
S11302505E0283E390E00E94DF040E94F104182F01
S11302608111FBCF81E00E94ED04CE01439626E08C
S1130270FC0111922A95E9F721E02D8B0E94FA01E5
S11302800E940B01882311F08FEF01C0812F0E947F
S1130290ED040E9401058823E1F30E94F1048530F6
S11302A009F444C0883001F1833009F079C0CE01EB
S11302B007960E944E00CE010D960E944E00BE018C
S11302C0635F7F4FCE0107960E945800882341F058
S11302D0CE0107960E946E0086E00E94ED0463C082
S11302E087E00E94ED045FC0CE0107960E944E0095
S11302F0CE0101960E949400BE01695F7F4FCE013A
S113030001960E945800882341F086E00E94ED0483
S1130310CE0143960E94D50046C087E00E94ED04BA
S1130320809160008F5F809360003DC0CE0107968E
S11303300E944E00CE0101960E949400BE01695FA6
S11303407F4FCE0101960E945800882301F186E078
S11303500E94ED04CE0107960E944E00CE010D9638
S11303600E944E00BE01635F7F4FCE0107960E943C
S11303705800882341F0CE0107960E946E0086E063
S11303800E94ED0410C087E00E94ED040CC087E0D9
S11303900E94ED04809160008F5F8093600003C031
S11303A087E00E94ED0480916000833011F40E9484
S11303B0B6000E940B01882311F08FEF01C0812F3A
S11303C00E94ED0466CF41E064E080E00E945E029A
S11303D040E064E080E00E94CE02089541E064E0E1
S11303E080E00E94CE02089540E064E080E00E9434
S11303F0CE020895CF93DF93EC0141E069818881B7
S11304000E945E0241E06A8188810E945E0240E0AF
S1130410698188810E94CE0240E06A8188810E94BD
S1130420CE0241E06D8181E00E945E0240E06D8178
S113043081E00E94CE021C821B82DF91CF9108953D
S1130440CF93DF93EC018B81813079F018F0823007
S1130450B9F020C040E0698188810E94CE0240E06A
S11304606A8188810E94CE0215C041E06981888139
S11304700E94CE0240E06A8188810E94CE020AC0B6
S113048040E0698188810E94CE0241E06A818881CE
S11304900E94CE028C812FEF829FC001112464E65A
S11304A070E00E949C05C62F0E947E030E94960362
S11304B08C2F0E949403DF91CF910895411138C08D
S11304C0813091F028F08230D9F0833029F10895F9
S11304D02AB381E090E002C0880F991F6A95E2F781
S11304E0809582238ABB089527B381E090E002C0FF
S11304F0880F991F6A95E2F78095822387BB089538
S113050024B381E090E002C0880F991F6A95E2F756
S11305108095822384BB089521B381E090E002C0DA
S1130520880F991F6A95E2F78095822381BB08950D
S1130530413099F5813089F028F08230C9F0833058
S113054011F108952AB381E090E002C0880F991F49
S11305506A95E2F7822B8ABB089527B381E090E085
S113056002C0880F991F6A95E2F7822B87BB089512
S113057024B381E090E002C0880F991F6A95E2F7E6
S1130580822B84BB089521B381E090E002C0880FE0
S1130590991F6A95E2F7822B81BB08954130A1F53A
S11305A0813089F028F08230C9F0833011F1089548
S11305B02BB381E090E002C0880F991F6A95E2F79F
S11305C0822B8BBB089528B381E090E002C0880F92
S11305D0991F6A95E2F7822B88BB089525B381E0C1
S11305E090E002C0880F991F6A95E2F7822B85BBC1
S11305F0089522B381E090E002C0880F991F6A95A4
S1130600E2F7822B82BB0895411137C0813091F00B
S113061028F08230D9F0833029F108952BB381E09A
S113062090E002C0880F991F6A95E2F780958223B3
S11306308BBB089528B381E090E002C0880F991F16
S11306406A95E2F78095822388BB089525B381E0FB
S113065090E002C0880F991F6A95E2F78095822383
S113066085BB089522B381E090E002C0880F991FF2
S11306706A95E2F78095822382BB0895E199FECFC3
S11306808EBB6DBB8CB384608CBB8CB382608CBB23
S11306900895E199FECF8EBB8CB381608CBB8DB382
S11306A008951F920F920FB60F9211242F933F9328
S11306B04F935F936F937F938F939F93AF93BF9366
S11306C0EF93FF93E0916300F0916400309709F099
S11306D00995FF91EF91BF91AF919F918F917F9178
S11306E06F915F914F913F912F910F900FBE0F909B
S11306F01F9018958FB780688FBF089583B7806463
S113070083BF83B7886083BF83B78F7E83BF83B77C
S1130710806283BF83B78E7F83BF83B7826083BFCA
S113072083B78B7F83BF08958CBF08951CBE089543
S113073088B7816088BF089588B7826088BF0895AC
S11307401F920F920FB60F9211242F933F934F9342
S11307505F936F937F938F939F93AF93BF93EF9325
S1130760FF93E0916500F0916600309709F00995D8
S11307700E949803FF91EF91BF91AF919F918F9148
S11307807F916F915F914F913F912F910F900FBE89
S11307900F901F9018951F920F920FB60F9211246D
S11307A02F933F934F935F936F937F938F939F9375
S11307B0AF93BF93EF93FF93E0916700F0916800CC
S11307C0309709F009950E949C03FF91EF91BF9126
S11307D0AF919F918F917F916F915F914F913F91D5
S11307E02F910F900FBE0F901F9018958FB58E7F8D
S11307F08FBD8FB58D7F8FBD8EB588608EBD8EB554
S11308008F7E8EBD8FB58F7B8FBD8FB58F778FBD5C
S11308108EB58E7F8EBD8EB582608EBD8EB58B7F7C
S11308208EBD08951FBC1EBC08959BBD8ABD08954E
S113083088B7846088BF089589B7806189BF0895A7
S113084088B7806188BF089588B7886088BF089595
S113085088B7806288BF0895009721F09093700054
S113086080936F0008951F920F920FB60F92112478
S11308702F933F934F935F936F937F938F939F93A4
S1130880AF93BF93EF93FF93E0916900F0916A00F7
S1130890309709F009950E942804FF91EF91BF91C8
S11308A0AF919F918F917F916F915F914F913F9104
S11308B02F910F900FBE0F901F9018951F920F92BB
S11308C00FB60F9211242F933F934F935F936F931F
S11308D07F938F939F93AF93BF93EF93FF93E09195
S11308E06F00F0917000309709F009950E94200480
S11308F0FF91EF91BF91AF919F918F917F916F91F4
S11309005F914F913F912F910F900FBE0F901F90C9
S113091018951F920F920FB60F9211242F933F93A5
S11309204F935F936F937F938F939F93AF93BF93F3
S1130930EF93FF93E0916B00F0916C00309709F016
S113094009950E942404FF91EF91BF91AF919F916B
S11309508F917F916F915F914F913F912F910F9064
S11309600FBE0F901F9018951F920F920FB60F9203
S113097011242F933F934F935F936F937F938F93A0
S11309809F93AF93BF93EF93FF93E0916D00F0912A
S11309906E00309709F009950E941804FF91EF91B9
S11309A0BF91AF919F918F917F916F915F914F9183
S11309B03F912F910F900FBE0F901F90189589B9FA
S11309C090BD8AB18B7F8AB986E880BD8AB1806187
S11309D08AB98AB188608AB908955D9BFECF8CB9C3
S11309E008955F9BFECF5C9906C05B9906C05A9937
S11309F006C08CB108958FEF08958FEF08958FEF9F
S1130A0008958BB1881F8827881F0895EF92FF925D
S1130A100F931F93CF93DF937C01D62FC0E008C0C0
S1130A2087010C0F111D0E94F104F8018083CF5F30
S1130A30CD17B0F3DF91CF911F910F91FF90EF90FD
S1130A4008951F920F920FB60F9211242F933F9384
S1130A504F935F936F937F938F939F93AF93BF93C2
S1130A60EF93FF93E0917500F0917600309709F0D1
S1130A700995FF91EF91BF91AF919F918F917F91D4
S1130A806F915F914F913F912F910F900FBE0F90F7
S1130A901F9018951F920F920FB60F9211242F9347
S1130AA03F934F935F936F937F938F939F93AF93F2
S1130AB0BF93EF93FF93E0917100F0917200309730
S1130AC009F00995FF91EF91BF91AF919F918F919B
S1130AD07F916F915F914F913F912F910F900FBE36
S1130AE00F901F9018951F920F920FB60F9211241A
S1130AF02F933F934F935F936F937F938F939F9322
S1130B00AF93BF93EF93FF93E0917300F091740060
S1130B10309709F00995FF91EF91BF91AF919F91A3
S1130B208F917F916F915F914F913F912F910F9092
S1130B300FBE0F901F90189597FB072E16F4009484
S1130B4007D077FD09D00E94B00507FC05D03EF41C
S1130B50909581959F4F0895709561957F4F089565
S1130B60AA1BBB1B51E107C0AA1FBB1FA617B707CF
S1130B7010F0A61BB70B881F991F5A95A9F78095EB
S10F0B809095BC01CD010895F894FFCFBE
S9030000FC
