:100000000C942A000C943C000C943C000C943C0092
:100010000C943C000C943C000C947E030C94A903BB
:100020000C94D4030C94FF030C9443030C94180316
:100030000C943C000C944C040C9475040C949E0499
:100040000C943C000C94BE020C943C000C94E7020F
:100050000C943C0011241FBECFE5D8E0DEBFCDBF1D
:1000600020E0A0E6B0E001C01D92A637B207E1F79C
:100070000E9456000C94FC040C940000EF92FF9236
:100080000F931F93CF937C01C0E008C087010C0F32
:10009000111D0E943C04F8018083CF5FC530B0F38E
:1000A000CF911F910F91FF90EF900895CF93DF9321
:1000B000CDB7DEB76A970FB6F894DEBF0FBECDBFDF
:1000C00040E060E083E00E94AB0141E061E083E05A
:1000D0000E94AB0183E390E00E942A040E94190170
:1000E0000E943C048111FCCF81E00E94380480E131
:1000F00090E00E94B6020E94380412E00E943C0484
:100100008330E1F74AE09E012F5F3F4F7901B9014B
:1001100090E00E94C7048E2D0E9457013FE38DE0BE
:1001200093E0315080409040E1F700C000000E9411
:10013000A101812F0E943804CE0146960E943E0004
:10014000CE0141960E943E00CE0146960E947F015C
:1001500060E081E00E949201CE0141960E947F0101
:1001600020E013C0822F90E0E6E1F0E0EC0FFD1FED
:10017000E80FF91F3081E1E1F0E0EC0FFD1FE80F1F
:10018000F91F8081381305C02F5F253058F380E0B8
:1001900001C081E0882371F019C0812F90E0E6E171
:1001A000F0E0EC0FFD1FE80FF91F60810E94AB0229
:1001B0001F5F01C010E0153080F385E00E94380415
:1001C00060E080E190E00E94AB0203C086E00E9404
:1001D000380480E190E00E94B602182F0E94380493
:1001E0008DCFCF93C82F40E060E081E00E942B02CA
:1001F00040E061E081E00E942B026C2F80E00E94D1
:100200009B0241E062E081E00E942B0289EF90E0D6
:100210000197F1F700C0000040E062E081E00E9439
:100220002B0289EF90E00197F1F700C00000CF9119
:10023000089541E060E081E00E94AB0141E061E0AF
:1002400081E00E94AB0141E062E081E00E94AB01ED
:100250006FEF80E00E941B028FE097E20197F1F7B9
:1002600000C0000088E30E94F10089EF90E0019750
:10027000F1F700C000008FE00E94F10089EF90E0EC
:100280000197F1F700C0000081E00E94F1008DEEBF
:1002900092E00197F1F700C0000086E00E94F100B3
:1002A0008DEE92E00197F1F700C000000895CF9322
:1002B000C82F41E060E081E00E942B0240E061E055
:1002C00081E00E942B026C2F80E00E949B0241E0A3
:1002D00062E081E00E942B0289EF90E00197F1F744
:1002E00000C0000040E062E081E00E942B0289EF44
:1002F00090E00197F1F700C00000CF9108950F93AF
:100300001F93CF938C01C0E003C00E945701CF5FC1
:10031000F801EC0FF11D80818111F7CFCF911F9172
:100320000F910895882319F0813031F0089580E805
:10033000860F0E94F100089580EC860F0E94F10064
:10034000089581E00E94F10089EF90E00197F1F7B4
:1003500000C000000895411138C0813091F028F0AC
:100360008230D9F0833029F108952AB381E090E0FA
:1003700002C0880F991F6A95E2F7809582238ABB95
:10038000089527B381E090E002C0880F991F6A9515
:10039000E2F78095822387BB089524B381E090E043
:1003A00002C0880F991F6A95E2F78095822384BB6B
:1003B000089521B381E090E002C0880F991F6A95EB
:1003C000E2F78095822381BB0895413099F5813011
:1003D00089F028F08230C9F0833011F108952AB3F2
:1003E00081E090E002C0880F991F6A95E2F7822BA6
:1003F0008ABB089527B381E090E002C0880F991F5F
:100400006A95E2F7822B87BB089524B381E090E0E0
:1004100002C0880F991F6A95E2F7822B84BB08956A
:1004200021B381E090E002C0880F991F6A95E2F73E
:10043000822B81BB0895813041F028F0823039F061
:10044000833039F008956ABB089567BB089564BB93
:10045000089561BB08954130A1F5813089F028F0FD
:100460008230C9F0833011F108952BB381E090E020
:1004700002C0880F991F6A95E2F7822B8BBB089503
:1004800028B381E090E002C0880F991F6A95E2F7D7
:10049000822B88BB089525B381E090E002C0880FCD
:1004A000991F6A95E2F7822B85BB089522B381E0FC
:1004B00090E002C0880F991F6A95E2F7822B82BBF9
:1004C0000895411137C0813091F028F08230D9F081
:1004D000833029F108952BB381E090E002C0880FAA
:1004E000991F6A95E2F7809582238BBB089528B304
:1004F00081E090E002C0880F991F6A95E2F780952D
:10050000822388BB089525B381E090E002C0880F64
:10051000991F6A95E2F78095822385BB089522B3DF
:1005200081E090E002C0880F991F6A95E2F78095FC
:10053000822382BB0895813041F028F0823039F067
:10054000833039F008956BBB089568BB089565BB8F
:10055000089562BB0895E199FECF8EBB6DBB8CB34D
:1005600084608CBB8CB382608CBB0895E199FECF14
:100570008EBB8CB381608CBB8DB308951F920F929C
:100580000FB60F9211242F933F934F935F936F9366
:100590007F938F939F93AF93BF93EF93FF93E091DC
:1005A0006000F0916100309709F00995FF91EF919B
:1005B000BF91AF919F918F917F916F915F914F917B
:1005C0003F912F910F900FBE0F901F9018951F9283
:1005D0000F920FB60F9211242F933F934F935F9377
:1005E0006F937F938F939F93AF93BF93EF93FF93FB
:1005F000E0916200F0916300309709F00995FF9156
:10060000EF91BF91AF919F918F917F916F915F918A
:100610004F913F912F910F900FBE0F901F90189503
:1006200088B7816088BF089588B7826088BF0895C1
:100630001F920F920FB60F9211242F933F934F9357
:100640005F936F937F938F939F93AF93BF93EF933A
:10065000FF93E0916400F0916500309709F00995EF
:100660000E941003FF91EF91BF91AF919F918F91E5
:100670007F916F915F914F913F912F910F900FBE9E
:100680000F901F9018951F920F920FB60F92112482
:100690002F933F934F935F936F937F938F939F938A
:1006A000AF93BF93EF93FF93E0916600F0916700E3
:1006B000309709F009950E941403FF91EF91BF91C3
:1006C000AF919F918F917F916F915F914F913F91EA
:1006D0002F910F900FBE0F901F90189588B78460D0
:1006E00088BF089588B7806188BF089588B78860FB
:1006F00088BF089588B7806288BF08951F920F92BF
:100700000FB60F9211242F933F934F935F936F93E4
:100710007F938F939F93AF93BF93EF93FF93E0915A
:100720006800F0916900309709F009950E947A03FA
:10073000FF91EF91BF91AF919F918F917F916F91B9
:100740005F914F913F912F910F900FBE0F901F908F
:1007500018951F920F920FB60F9211242F933F936B
:100760004F935F936F937F938F939F93AF93BF93B9
:10077000EF93FF93E0916E00F0916F00309709F0D6
:1007800009950E947203FF91EF91BF91AF919F91E4
:100790008F917F916F915F914F913F912F910F902A
:1007A0000FBE0F901F9018951F920F920FB60F92C9
:1007B00011242F933F934F935F936F937F938F9366
:1007C0009F93AF93BF93EF93FF93E0916A00F091F3
:1007D0006B00309709F009950E947603FF91EF9125
:1007E000BF91AF919F918F917F916F915F914F9149
:1007F0003F912F910F900FBE0F901F9018951F9251
:100800000F920FB60F9211242F933F934F935F9344
:100810006F937F938F939F93AF93BF93EF93FF93C8
:10082000E0916C00F0916D00309709F009950E94FD
:100830006E03FF91EF91BF91AF919F918F917F9147
:100840006F915F914F913F912F910F900FBE0F903D
:100850001F90189589B990BD8AB18B7F8AB986E8B7
:1008600080BD8AB180618AB98AB188608AB90895E9
:100870005D9BFECF8CB908955F9BFECF5C9906C04F
:100880005B9906C05A9906C08CB108958FEF089500
:100890008FEF08958FEF08951F920F920FB60F926A
:1008A00011242F933F934F935F936F937F938F9375
:1008B0009F93AF93BF93EF93FF93E0917400F091F8
:1008C0007500309709F00995FF91EF91BF91AF91B5
:1008D0009F918F917F916F915F914F913F912F9158
:1008E0000F900FBE0F901F9018951F920F920FB68A
:1008F0000F9211242F933F934F935F936F937F93A6
:100900008F939F93AF93BF93EF93FF93E09170000A
:10091000F0917100309709F00995FF91EF91BF9127
:10092000AF919F918F917F916F915F914F913F9187
:100930002F910F900FBE0F901F9018951F920F923E
:100940000FB60F9211242F933F934F935F936F93A2
:100950007F938F939F93AF93BF93EF93FF93E09118
:100960007200F0917300309709F00995FF91EF91B3
:10097000BF91AF919F918F917F916F915F914F91B7
:100980003F912F910F900FBE0F901F901895BB278E
:100990004A3031F4992322F4BDE2909581959F4F1E
:1009A0000C94D304BB27FB015527AA27880F991F56
:1009B000AA1FA41710F0A41B83955051B9F7A05D8E
:1009C000AA3308F0A95DA193009779F7B111B1930B
:1009D0001192CB010C94EC04DC01FC01672F7191A6
:1009E0007723E1F7329704C07C916D937083629115
:0C09F000AE17BF07C8F30895F894FFCFBE
:00000001FF
