S01200004D61737465725F4D43552E7372656362
S11300000C942A000C9447000C9447000C9447006D
S11300100C9447000C9447000C9447000C94470040
S11300200C9447000C9447000C9447000C94470030
S11300300C9447000C9480040C94A9040C94D204EE
S11300400C9447000C9430040C9447000C94470023
S11300500C94470011241FBECFE5D8E0DEBFCDBF0E
S113006010E0A0E6B0E0EAEFF9E002C005900D92DE
S1130070AE3EB107D9F720E0AEEEB0E001C01D926C
S1130080A73FB207E1F70E9402010C94FB040C9411
S11300900000EF92FF920F931F93CF937B010E9476
S11300A0D602C0E080E090E02EC00E9402028C01E3
S11300B06C2F81E00E94E902F80180818823F9F025
S11300C08D33E9F0F701EC0FF11D80830E94AE023D
S11300D0FFE32DE083E0F15020408040E1F700C0D1
S11300E000006C2F81E00E94E9028AE20E94AE02C5
S11300F0CF5F6C2F81E00E94E902F8011082C530C5
S1130100A0F20E940202FC0180818D33C1F70E949B
S1130110F802CF911F910F91FF90EF900895CF9324
S1130120DF93CDB7DEB72D970FB6F894DEBF0FBEC1
S1130130CDBF8DE0E0EDF0E0DE01119601900D926F
S11301408A95E1F7CE0101960E94D6028FEF0E94B4
S1130150AE026DE080E00E94E9022FE986E891E0BA
S1130160215080409040E1F700C000008FEF0E94D2
S1130170AE026EE080E00E94E9022FE986E891E099
S1130180215080409040E1F700C000008FEF0E94B2
S1130190AE026FE080E00E94E9022FE986E891E078
S11301A0215080409040E1F700C000008FEF0E9492
S11301B0AE0260E180E00E94E9022FE986E891E066
S11301C0215080409040E1F700C000002D960FB60A
S11301D0F894DEBF0FBECDBFDF91CF9108950F938A
S11301E01F93CF938C01C0E007C0F801EC0FF11D01
S11301F080810E946704CF5FC530B8F3CF911F910F
S11302000F910895CF93DF93CDB7DEB7CA57D109C5
S11302100FB6F894DEBF0FBECDBF40E060E083E0D0
S11302200E94020341E061E083E00E9402030E9415
S113023070020E94B10183E390E00E94590480E0BF
S11302400E9467040E946B048130E1F780E7E0E6D6
S1130250F0E0DE01119601900D928A95E1F70E947B
S11302607B048111FCCF0E946B048F3F09F057C0BF
S1130270BE016A587F4FCE0101960E944900BE011B
S11302806F587F4FCE0141960E94490083E00E943F
S113029067040E946B048230E1F7CE018A589F4FB5
S11302A00E94EF00CE018F589F4F0E94EF000E94E2
S11302B07B048823E1F30E946B048530B1F40E942F
S11302C08F0060E081E00E94E902CE01C1960E94A5
S11302D0D6022FE78AE196E0215080409040E1F772
S11302E000C000000E94F802BACF863009F0B7CFF0
S11302F00E948F0060E081E00E94E902CE018F5BE2
S11303009F4F0E94D6022FE78AE196E02150804059
S11303109040E1F700C000000E94F802A0CF8111D4
S11303209ECFCE018F5A9F4F0E94D60260E081E09B
S11303300E94E902CE018F599F4F0E94D6020E946B
S11303400202182F0E94F802812F0E94AE022FEFA2
S113035084E39CE0215080409040E1F700C000001D
S1130360EECF40E060E082E00E94020340E061E002
S113037082E00E94020340E062E082E00E94020305
S113038040E063E082E00E94020341E060E082E03A
S11303900E94820341E061E082E00E94820341E026
S11303A062E082E00E94820341E063E082E00E9416
S11303B0820341E064E082E00E94020341E065E0E0
S11303C082E00E94020341E066E082E00E940203B0
S11303D041E067E082E00E94020341E064E082E0E1
S11303E00E94820341E065E082E00E94820341E0D2
S11303F066E082E00E94820341E067E082E00E94BE
S113040082030895CF93DF93D4E03BC040E06D2F87
S113041082E00E94820381EE94E00197F1F700C02C
S11304200000C0E026C06C2F82E00E94020481110B
S11304301FC08C2F90E02D2F30E024503109880FFD
S1130440991F880F991F83529F4FFC01E20FF31FDE
S113045080818093EE0006C081EE94E00197F1F76D
S113046000C000006C2F82E00E9402048823A1F3E4
S1130470CF5FC430C0F241E06D2F82E00E9482035E
S1130480DF5FD83018F28EEE90E0DF91CF910895BF
S1130490CF93C82F40E060E081E00E94820340E0F7
S11304A061E081E00E9482036C2F80E00E94F203ED
S11304B041E062E081E00E94820389EF90E00197CD
S11304C0F1F700C0000040E062E081E00E94820396
S11304D089EF90E00197F1F700C00000CF910895F3
S11304E041E060E081E00E94020341E061E081E0DC
S11304F00E94020341E062E081E00E9402036FEF88
S113050080E00E9472038FE097E20197F1F700C048
S1130510000088E30E94480289EF90E00197F1F718
S113052000C000008FE00E94480289EF90E001972C
S1130530F1F700C0000081E00E9448028DEE92E0D5
S11305400197F1F700C0000086E00E9448028DEE9A
S113055092E00197F1F700C000000895CF93C82FEF
S113056041E060E081E00E94820340E061E081E0DC
S11305700E9482036C2F80E00E94F20341E062E05B
S113058081E00E94820381EE94E00197F1F700C0BC
S1130590000040E062E081E00E94820381EE94E08A
S11305A00197F1F700C00000CF9108950F931F93B6
S11305B0CF938C01C0E003C00E94AE02CF5FF8016C
S11305C0EC0FF11D80818111F7CFCF911F910F9115
S11305D00895882319F0813031F0089580E8860F5A
S11305E00E944802089580EC860F0E9448020895F4
S11305F081E00E94480289EF90E00197F1F700C082
S113060000000895411138C0813091F028F0823003
S1130610D9F0833029F108952AB381E090E002C033
S1130620880F991F6A95E2F7809582238ABB089503
S113063027B381E090E002C0880F991F6A95E2F722
S11306408095822387BB089524B381E090E002C0A3
S1130650880F991F6A95E2F78095822384BB0895D9
S113066021B381E090E002C0880F991F6A95E2F7F8
S11306708095822381BB0895413099F5813089F0BA
S113068028F08230C9F0833011F108952AB381E053
S113069090E002C0880F991F6A95E2F7822B8ABB0B
S11306A0089527B381E090E002C0880F991F6A95EE
S11306B0E2F7822B87BB089524B381E090E002C067
S11306C0880F991F6A95E2F7822B84BB089521B3A2
S11306D081E090E002C0880F991F6A95E2F7822BAF
S11306E081BB0895813041F028F0823039F08330A5
S11306F039F008956ABB089567BB089564BB0895F3
S113070061BB08954130A1F5813089F028F0823031
S1130710C9F0833011F108952BB381E090E002C059
S1130720880F991F6A95E2F7822B8BBB089528B333
S113073081E090E002C0880F991F6A95E2F7822B4E
S113074088BB089525B381E090E002C0880F991F0B
S11307506A95E2F7822B85BB089522B381E090E08D
S113076002C0880F991F6A95E2F7822B82BB089515
S1130770411137C0813091F028F08230D9F08330B4
S113078029F108952BB381E090E002C0880F991FEE
S11307906A95E2F7809582238BBB089528B381E0A4
S11307A090E002C0880F991F6A95E2F78095822332
S11307B088BB089525B381E090E002C0880F991F9B
S11307C06A95E2F78095822385BB089522B381E080
S11307D090E002C0880F991F6A95E2F78095822302
S11307E082BB0895813041F028F0823039F08330A3
S11307F039F008956BBB089568BB089565BB0895EF
S113080062BB0895813079F028F08230A9F08330FA
S1130810E1F024C089B390E002C0959587956A956C
S1130820E2F78170089586B390E002C095958795AC
S11308306A95E2F78170089583B390E002C09595BC
S113084087956A95E2F78170089580B390E002C0BD
S1130850959587956A95E2F78170089582E30895E6
S11308601F920F920FB60F9211242F933F934F9321
S11308705F936F937F938F939F93AF93BF93EF9304
S1130880FF93E091EF00F091F000309709F00995A3
S1130890FF91EF91BF91AF919F918F917F916F9154
S11308A05F914F913F912F910F900FBE0F901F902A
S11308B0189589B990BD8AB18B7F8AB986E880BDC5
S11308C08AB180618AB98AB188608AB908955D9BCA
S11308D0FECF8CB908955F9BFECF5C9906C05B99EF
S11308E006C05A9906C08CB108958FEF08958FEF12
S11308F008958FEF08958BB1881F8827881F089566
S11309001F920F920FB60F9211242F933F934F9380
S11309105F936F937F938F939F93AF93BF93EF9363
S1130920FF93E091F500F091F600309709F00995F6
S1130930FF91EF91BF91AF919F918F917F916F91B3
S11309405F914F913F912F910F900FBE0F901F9089
S113095018951F920F920FB60F9211242F933F9365
S11309604F935F936F937F938F939F93AF93BF93B3
S1130970EF93FF93E091F100F091F200309709F0CA
S11309800995FF91EF91BF91AF919F918F917F91C5
S11309906F915F914F913F912F910F900FBE0F90E8
S11309A01F9018951F920F920FB60F9211242F9338
S11309B03F934F935F936F937F938F939F93AF93E3
S11309C0BF93EF93FF93E091F300F091F40030971D
S11309D009F00995FF91EF91BF91AF919F918F918C
S11309E07F916F915F914F913F912F910F900FBE27
S10D09F00F901F901895F894FFCFA4
S11309FA456E7465722050617373776F72643A003E
S1130A0A52652D456E74657220506173733A000005
S1130A1A536C61766520697320427573790000000E
S1130A2A437265617465205375636365737321004A
S1130A3A437265617465204572726F722100000009
S1130A4A31203A204F70656E20446F6F72000000A7
S1130A5A32203A204368616E6765205061737300DF
S1130A6A504C4541534520574149542100373839A0
S1110A7A2F3435362A3132332D23303D2B00F4
S9030000FC
