S01200004D61737465725F4D43552E7372656362
S11300000C942A000C9447000C9447000C9447006D
S11300100C9447000C9447000C9447000C94470040
S11300200C9447000C9447000C9447000C94470030
S11300300C9447000C94EF040C9418050C9441059F
S11300400C9447000C9489040C9447000C944700CA
S11300500C94470011241FBECFE5D8E0DEBFCDBF0E
S113006011E0A0E6B0E0E8EDFAE002C005900D92E0
S1130070AE31B107D9F721E0AEE1B1E001C01D9284
S1130080A732B207E1F70E9402010C946A050C94AE
S11300900000EF92FF920F931F93CF937B010E9476
S11300A02F03C0E080E090E02EC00E945B028C0130
S11300B06C2F81E00E944203F80180818823F9F0CB
S11300C08D33E9F0F701EC0FF11D80830E940703E3
S11300D0FFE32DE083E0F15020408040E1F700C0D1
S11300E000006C2F81E00E9442038AE20E94070311
S11300F0CF5F6C2F81E00E944203F8011082C5306B
S1130100A0F20E945B02FC0180818D33C1F70E9442
S11301105103CF911F910F91FF90EF900895CF93CA
S1130120DF93CDB7DEB72D970FB6F894DEBF0FBEC1
S1130130CDBF8DE0E0E0F1E0DE01119601900D927B
S11301408A95E1F7CE0101960E942F038FEF0E945A
S113015007036DE080E00E9442032FE986E891E006
S1130160215080409040E1F700C000008FEF0E94D2
S113017007036EE080E00E9442032FE986E891E0E5
S1130180215080409040E1F700C000008FEF0E94B2
S113019007036FE080E00E9442032FE986E891E0C4
S11301A0215080409040E1F700C000008FEF0E9492
S11301B0070360E180E00E9442032FE986E891E0B2
S11301C0215080409040E1F700C000002D960FB60A
S11301D0F894DEBF0FBECDBFDF91CF910895CF93CA
S11301E0DF93EC0180E090E002C00E945B02FC011E
S11301F020813FEC320F3230C0F728831082DF9128
S1130200CF910895CF93DF93CDB7DEB7CA5AD10902
S11302100FB6F894DEBF0FBECDBF40E060E083E0D0
S11302200E945B0341E061E083E00E945B030E9463
S1130230C9020E940A0283E390E00E94B20480E0B3
S11302400E94C0040E94C4048130E1F780EAE0E621
S1130250F0E0DE01119601900D928A95E1F70E947B
S1130260D4048823E1F30E94C4048F3F09F055C0ED
S1130270BE016A557F4FCE0101960E944900BE011E
S11302806F557F4FCE0141960E94490083E00E9442
S1130290C00465E0CE018A559F4F0E94D90465E0F1
S11302A0CE018F559F4F0E94D9040E94D404882305
S11302B0E1F30E94C4048630B1F40E948F0060E030
S11302C081E00E944203CE01C1960E942F032FE3D6
S11302D082E49FE0215080409040E1F700C000009C
S11302E00E945103BCCF873009F0B9CF0E948F0020
S11302F060E081E00E944203CE018F5B9F4F0E9429
S11303002F032FE382E49FE0215080409040E1F7E7
S113031000C000000E945103A2CF8111A0CFCE01E2
S11303208F5A9F4F0E942F0360E081E00E94420396
S1130330CE018F599F4F0E942F03CE018A559F4FA4
S11303400E94EF000E945103BE016F557F4FCE0102
S113035001960E944900CA55DF4F8881C65AD04091
S1130360813321F488E00E94C00405C0823319F46B
S113037085E00E94C00465E0CE018F559F4F0E9426
S1130380D9040E94D4048823E1F30E94C404182FE2
S1130390873021F4CE0181960E942F03CA55DF4F86
S11303A08881C65AD040813309F059CF163009F0FC
S11303B056CFCE018F589F4F0E942F032FEB86EC10
S11303C09DE2215080409040E1F700C000000E946F
S11303D05103CE018F579F4F0E942F032FEB87E2CB
S11303E099E0215080409040E1F700C000000E9455
S11303F05103CE018F569F4F0E942F032FEB86ECA3
S11304009DE2215080409040E1F700C000000E942E
S1130410510325CF40E060E082E00E945B0340E0AE
S113042061E082E00E945B0340E062E082E00E94BF
S11304305B0340E063E082E00E945B0341E060E034
S113044082E00E94DB0341E061E082E00E94DB0382
S113045041E062E082E00E94DB0341E063E082E08D
S11304600E94DB0341E064E082E00E945B0341E020
S113047065E082E00E945B0341E066E082E00E9466
S11304805B0341E067E082E00E945B0341E064E0DB
S113049082E00E94DB0341E065E082E00E94DB032E
S11304A041E066E082E00E94DB0341E067E082E035
S11304B00E94DB030895CF93DF93D4E03BC040E078
S11304C06D2F82E00E94DB0381EE94E00197F1F747
S11304D000C00000C0E026C06C2F82E00E945B04D4
S11304E081111FC08C2F90E02D2F30E02450310952
S11304F0880F991F880F991F835F9E4FFC01E20F9D
S1130500F31F808180931E0106C081EE94E0019761
S1130510F1F700C000006C2F82E00E945B04882386
S1130520A1F3CF5FC430C0F241E06D2F82E00E949E
S1130530DB03DF5FD83018F28EE191E0DF91CF91D9
S11305400895CF93C82F40E060E081E00E94DB0370
S113055040E061E081E00E94DB036C2F80E00E94B8
S11305604B0441E062E081E00E94DB0389EF90E00C
S11305700197F1F700C0000040E062E081E00E94D2
S1130580DB0389EF90E00197F1F700C00000CF9101
S1130590089541E060E081E00E945B0341E061E096
S11305A081E00E945B0341E062E081E00E945B0322
S11305B06FEF80E00E94CB038FE097E20197F1F7A1
S11305C000C0000088E30E94A10289EF90E0019737
S11305D0F1F700C000008FE00E94A10289EF90E0D3
S11305E00197F1F700C0000081E00E94A1028DEEA6
S11305F092E00197F1F700C0000086E00E94A1029A
S11306008DEE92E00197F1F700C000000895CF93BA
S1130610C82F41E060E081E00E94DB0340E061E03C
S113062081E00E94DB036C2F80E00E944B0441E0D8
S113063062E081E00E94DB0381EE94E00197F1F730
S113064000C0000040E062E081E00E94DB0381EE34
S113065094E00197F1F700C00000CF9108950F9343
S11306601F93CF938C01C0E003C00E940703CF5FA8
S1130670F801EC0FF11D80818111F7CFCF911F910B
S11306800F910895882319F0813031F0089580E89E
S1130690860F0E94A102089580EC860F0E94A10299
S11306A0089581E00E94A10287E893E10197F1F7A0
S11306B000C000000895411138C0813091F028F045
S11306C08230D9F0833029F108952AB381E090E093
S11306D002C0880F991F6A95E2F7809582238ABB2E
S11306E0089527B381E090E002C0880F991F6A95AE
S11306F0E2F78095822387BB089524B381E090E0DC
S113070002C0880F991F6A95E2F78095822384BB03
S1130710089521B381E090E002C0880F991F6A9583
S1130720E2F78095822381BB0895413099F58130A9
S113073089F028F08230C9F0833011F108952AB38A
S113074081E090E002C0880F991F6A95E2F7822B3E
S11307508ABB089527B381E090E002C0880F991FF7
S11307606A95E2F7822B87BB089524B381E090E079
S113077002C0880F991F6A95E2F7822B84BB089503
S113078021B381E090E002C0880F991F6A95E2F7D7
S1130790822B81BB0895813041F028F0823039F0FA
S11307A0833039F008956ABB089567BB089564BB2C
S11307B0089561BB08954130A1F5813089F028F096
S11307C08230C9F0833011F108952BB381E090E0B9
S11307D002C0880F991F6A95E2F7822B8BBB08959C
S11307E028B381E090E002C0880F991F6A95E2F770
S11307F0822B88BB089525B381E090E002C0880F66
S1130800991F6A95E2F7822B85BB089522B381E094
S113081090E002C0880F991F6A95E2F7822B82BB91
S11308200895411137C0813091F028F08230D9F019
S1130830833029F108952BB381E090E002C0880F42
S1130840991F6A95E2F7809582238BBB089528B39C
S113085081E090E002C0880F991F6A95E2F78095C5
S1130860822388BB089525B381E090E002C0880FFD
S1130870991F6A95E2F78095822385BB089522B378
S113088081E090E002C0880F991F6A95E2F7809595
S1130890822382BB0895813041F028F0823039F000
S11308A0833039F008956BBB089568BB089565BB28
S11308B0089562BB0895813079F028F08230A9F060
S11308C08330E1F024C089B390E002C09595879508
S11308D06A95E2F78170089586B390E002C0959519
S11308E087956A95E2F78170089583B390E002C01A
S11308F0959587956A95E2F78170089580B390E0A5
S113090002C0959587956A95E2F78170089582E310
S113091008951F920F920FB60F9211242F933F93B5
S11309204F935F936F937F938F939F93AF93BF93F3
S1130930EF93FF93E0911F01F0912001309709F0AC
S11309400995FF91EF91BF91AF919F918F917F9105
S11309506F915F914F913F912F910F900FBE0F9028
S11309601F90189589B990BD8AB18B7F8AB986E8A2
S113097080BD8AB180618AB98AB188608AB90895D4
S11309805D9BFECF8CB908955F9BFECF5C9906C03A
S11309905B9906C05A9906C08CB108958FEF0895EB
S11309A08FEF08958FEF08958BB1881F8827881FD4
S11309B008950F931F93CF93DF938C01D62FC0E03C
S11309C007C0F801EC0FF11D80810E94C004CF5FC5
S11309D0CD17B8F3DF91CF911F910F9108951F9216
S11309E00F920FB60F9211242F933F934F935F935F
S11309F06F937F938F939F93AF93BF93EF93FF93E3
S1130A00E0912501F0912601309709F00995FF91B5
S1130A10EF91BF91AF919F918F917F916F915F9172
S1130A204F913F912F910F900FBE0F901F901895EB
S1130A301F920F920FB60F9211242F933F934F934F
S1130A405F936F937F938F939F93AF93BF93EF9332
S1130A50FF93E0912101F0912201309709F009956B
S1130A60FF91EF91BF91AF919F918F917F916F9182
S1130A705F914F913F912F910F900FBE0F901F9058
S1130A8018951F920F920FB60F9211242F933F9334
S1130A904F935F936F937F938F939F93AF93BF9382
S1130AA0EF93FF93E0912301F0912401309709F033
S1130AB00995FF91EF91BF91AF919F918F917F9194
S1130AC06F915F914F913F912F910F900FBE0F90B7
S10B0AD01F901895F894FFCF64
S1130AD8456E7465722050617373776F72643A005F
S1130AE852652D456E74657220506173733A000027
S1130AF8536C617665206973204275737900000030
S1130B08437265617465205375636365737321006B
S1130B18437265617465204572726F72210000002A
S1130B2831203A204F70656E20446F6F72000000C8
S1130B3832203A204368616E676520506173730000
S1130B48446F6F72204F70656E696E6721000000F4
S1130B58446F6F72206973204F70656E2100000026
S1130B68446F6F7220436C6F73696E6721000000D5
S1130B78504C454153452057414954210037383991
S1110B882F3435362A3132332D23303D2B00E5
S9030000FC
