:100000000C942A000C9447000C9447000C94470071
:100010000C9447000C9447000C9458050C948305ED
:100020000C94AE050C94D9050C9447000C94470031
:100030000C9447000C9441060C946A060C949306A9
:100040000C9447000C94EE040C9447000C94470069
:100050000C94470011241FBECFE5D8E0DEBFCDBF12
:1000600011E0A0E6B0E0ECE7FDE002C005900D92E3
:10007000AE34B107D9F721E0AEE4B1E001C01D9282
:10008000A236B207E1F70E9479010C94BC060C94E9
:10009000000080914F018F3041F4809150018F5FBB
:1000A0008093500110924F0108958F5F80934F010C
:1000B0000895EF92FF920F931F93CF937B010E94BD
:1000C0009403C0E080E090E02EC00E94C0028C014A
:1000D0006C2F81E00E94A703F80180818823F9F04A
:1000E0008D33E9F0F701EC0FF11D80830E946C0362
:1000F000FFE32DE083E0F15020408040E1F700C0B5
:1001000000006C2F81E00E94A7038AE20E946C032A
:10011000CF5F6C2F81E00E94A703F8011082C530E9
:10012000A0F20E94C002FC0180818D33C1F7F7016B
:10013000EC0FF11D10820E94B603CF911F910F9119
:10014000FF90EF9008951F93CF93DF93CDB7DEB765
:100150002D970FB6F894DEBF0FBECDBF8DE0E0E364
:10016000F1E0DE01119601900D928A95E1F7CE0142
:1001700001960E9494031DE011C0612F80E00E944F
:10018000A7038FEF0E946C032FE986E891E02150CE
:1001900080409040E1F700C000001F5F113168F31C
:1001A0002D960FB6F894DEBF0FBECDBFDF91CF9175
:1001B0001F910895CF93DF93EC0180E090E002C09F
:1001C0000E94C002FC0120813FEC320F3230C0F7A8
:1001D00028831082DF91CF9108950F931F93CF93BF
:1001E000DF93CDB7DEB72C970FB6F894DEBF0FBE06
:1001F000CDBF8C01BE016F5F7F4F0E945900BE01D1
:10020000695F7F4FC80140960E94590066E0CE01A9
:1002100001960E942B0666E0CE0107960E942B06EF
:100220002C960FB6F894DEBF0FBECDBFDF91CF91F5
:100230001F910F910895CF93DF93EC010E941B054E
:1002400089E490E00E94510584E294EF0E943A050F
:100250000E9441050E941705CE0180549F4F0E94C5
:100260009403809150018C33E0F30E94B603109206
:100270004E01109250010E943705DF91CF910895F1
:10028000CF93DF93EC010E941B0589E490E00E946C
:10029000510584E294EF0E943A050E9441050E94B4
:1002A0001705CE0180599F4F0E9494038091500101
:1002B0008F30E0F30E94B603CE0180589F4F0E941A
:1002C0009403809150018331E0F30E94B603CE0184
:1002D00080579F4F0E949403809150018232E0F337
:1002E0000E94B603109250010E943705DF91CF9112
:1002F0000895CF93DF93CDB7DEB7C75DD1090FB6B1
:10030000F894DEBF0FBECDBF40E060E083E00E9406
:10031000C00341E061E083E00E94C0030E942E031D
:100320000E946F0283E390E00E94040680E00E9436
:1003300012060E9416068130E1F780EDE0E6F0E05B
:10034000DE01119601900D928A95E1F70E94260632
:100350008823E1F30E9416068F3F51F583E00E9447
:100360001206CE0101960E94ED000E942606882307
:10037000E1F30E941606182F0E94A30060E081E0BE
:100380000E94A703163019F4CE01C19603C0CE0116
:100390008F5B9F4F0E9494032FE382E49FE02150E4
:1003A00080409040E1F700C000000E94B603CECF2D
:1003B0008F3F61F2CE018F5A9F4F0E94940360E0FD
:1003C00081E00E94A703CE018F599F4F0E949403A2
:1003D000CE0189529F4F0E94DA000E94B603BE01EF
:1003E0006F527F4FCE0101960E945900C952DF4FD4
:1003F0008881C75DD040813311F488E001C085E079
:100400000E94120666E0CE018F529F4F0E942B067B
:100410000E9426068823E1F30E941606873009F51C
:1004200090914E019230E8F49F5F90934E01CE017F
:100430008F559F4F0E94940360E081E00E94A703C4
:10044000CE018F549F4F0E9494032FE382E49FE0DC
:10045000215080409040E1F700C000000E94B603A8
:1004600075CFC952DF4F9881C75DD040913339F4C1
:10047000863029F4CE0101960E94400167CF923365
:1004800049F5863039F5CE0101960E94ED000E94B3
:1004900026068823E1F30E941606182F0E94A30067
:1004A00060E081E00E94A703163019F4CE01C196E6
:1004B00003C0CE018F5B9F4F0E9494032FE382E421
:1004C0009FE0215080409040E1F700C000000E9472
:1004D000B6033CCFCE0101960E941B0137CF40E00E
:1004E00060E082E00E94C00340E061E082E00E94A0
:1004F000C00340E062E082E00E94C00340E063E0AD
:1005000082E00E94C00341E060E082E00E9440047B
:1005100041E061E082E00E94400441E062E082E06C
:100520000E94400441E063E082E00E94400441E018
:1005300064E082E00E94C00341E065E082E00E9446
:10054000C00341E066E082E00E94C00341E067E052
:1005500082E00E94C00341E064E082E00E94400427
:1005600041E065E082E00E94400441E066E082E014
:100570000E94400441E067E082E00E944004089548
:10058000CF93DF93D4E03BC040E06D2F82E00E9428
:10059000400481EE94E00197F1F700C00000C0E054
:1005A00026C06C2F82E00E94C00481111FC08C2FD6
:1005B00090E02D2F30E024503109880F991F880FCB
:1005C000991F835C9E4FFC01E20FF31F8081809393
:1005D000510106C081EE94E00197F1F700C00000E0
:1005E0006C2F82E00E94C0048823A1F3CF5FC43047
:1005F000C0F241E06D2F82E00E944004DF5FD830FE
:1006000018F281E591E0DF91CF910895CF93C82F43
:1006100040E060E081E00E94400440E061E081E071
:100620000E9440046C2F80E00E94B00441E062E030
:1006300081E00E94400489EF90E00197F1F700C04B
:10064000000040E062E081E00E94400489EF90E019
:100650000197F1F700C00000CF91089541E060E0FC
:1006600081E00E94C00341E061E081E00E94C0039C
:1006700041E062E081E00E94C0036FEF80E00E94F1
:1006800030048FE097E20197F1F700C0000088E3A3
:100690000E94060389EF90E00197F1F700C0000087
:1006A0008FE00E94060389EF90E00197F1F700C008
:1006B000000081E00E9406038DEE92E00197F1F7C1
:1006C00000C0000086E00E9406038DEE92E00197D4
:1006D000F1F700C000000895CF93C82F41E060E01B
:1006E00081E00E94400440E061E081E00E9440041B
:1006F0006C2F80E00E94B00441E062E081E00E9443
:10070000400481EE94E00197F1F700C0000040E062
:1007100062E081E00E94400481EE94E00197F1F7ED
:1007200000C00000CF9108950F931F93CF938C01C9
:10073000C0E003C00E946C03CF5FF801EC0FF11D15
:1007400080818111F7CFCF911F910F910895882358
:1007500019F0813031F0089580E8860F0E94060379
:10076000089580EC860F0E940603089581E00E94A0
:10077000060387E893E10197F1F700C000000895B0
:10078000411138C0813091F028F08230D9F08330A7
:1007900029F108952AB381E090E002C0880F991FE3
:1007A0006A95E2F7809582238ABB089527B381E09A
:1007B00090E002C0880F991F6A95E2F78095822326
:1007C00087BB089524B381E090E002C0880F991F91
:1007D0006A95E2F78095822384BB089521B381E076
:1007E00090E002C0880F991F6A95E2F780958223F6
:1007F00081BB0895413099F5813089F028F082302D
:10080000C9F0833011F108952AB381E090E002C06D
:10081000880F991F6A95E2F7822B8ABB089527B348
:1008200081E090E002C0880F991F6A95E2F7822B61
:1008300087BB089524B381E090E002C0880F991F20
:100840006A95E2F7822B84BB089521B381E090E0A2
:1008500002C0880F991F6A95E2F7822B81BB089529
:10086000813041F028F0823039F0833039F008953A
:100870006ABB089567BB089564BB089561BB089582
:100880004130A1F5813089F028F08230C9F0833001
:1008900011F108952BB381E090E002C0880F991FF9
:1008A0006A95E2F7822B8BBB089528B381E090E034
:1008B00002C0880F991F6A95E2F7822B88BB0895C2
:1008C00025B381E090E002C0880F991F6A95E2F796
:1008D000822B85BB089522B381E090E002C0880F8F
:1008E000991F6A95E2F7822B82BB0895411137C0A8
:1008F000813091F028F08230D9F0833029F10895C9
:100900002BB381E090E002C0880F991F6A95E2F74F
:10091000809582238BBB089528B381E090E002C0CC
:10092000880F991F6A95E2F78095822388BB089506
:1009300025B381E090E002C0880F991F6A95E2F725
:100940008095822385BB089522B381E090E002C0A8
:10095000880F991F6A95E2F78095822382BB0895DC
:10096000813041F028F0823039F0833039F0089539
:100970006BBB089568BB089565BB089562BB08957D
:10098000813079F028F08230A9F08330E1F024C082
:1009900089B390E002C0959587956A95E2F78170DA
:1009A000089586B390E002C0959587956A95E2F721
:1009B0008170089583B390E002C0959587956A95FC
:1009C000E2F78170089580B390E002C09595879515
:1009D0006A95E2F78170089582E308951F920F925D
:1009E0000FB60F9211242F933F934F935F936F9302
:1009F0007F938F939F93AF93BF93EF93FF93E09178
:100A00005201F0915301309709F00995FF91EF9150
:100A1000BF91AF919F918F917F916F915F914F9116
:100A20003F912F910F900FBE0F901F9018958FB789
:100A300080688FBF08958FB58E7F8FBD8FB58D7FF6
:100A40008FBD8EB588608EBD8EB58F7E8EBD8FB505
:100A50008F7B8FBD8FB58F778FBD8EB58E7F8EBD0F
:100A60008EB582608EBD8EB58B7F8EBD08951FBC06
:100A70001EBC08959BBD8ABD089588B7846088BF59
:100A8000089589B7806189BF089588B7806188BF5C
:100A9000089588B7886088BF089588B7806288BF46
:100AA0000895009721F090935B0180935A01089577
:100AB0001F920F920FB60F9211242F933F934F93D3
:100AC0005F936F937F938F939F93AF93BF93EF93B6
:100AD000FF93E0915401F0915501309709F0099589
:100AE0000E944D05FF91EF91BF91AF919F918F9122
:100AF0007F916F915F914F913F912F910F900FBE1A
:100B00000F901F9018951F920F920FB60F921124FD
:100B10002F933F934F935F936F937F938F939F9305
:100B2000AF93BF93EF93FF93E0915A01F0915B0174
:100B3000309709F009950E944505FF91EF91BF910B
:100B4000AF919F918F917F916F915F914F913F9165
:100B50002F910F900FBE0F901F9018951F920F921C
:100B60000FB60F9211242F933F934F935F936F9380
:100B70007F938F939F93AF93BF93EF93FF93E091F6
:100B80005601F0915701309709F009950E944905E7
:100B9000FF91EF91BF91AF919F918F917F916F9155
:100BA0005F914F913F912F910F900FBE0F901F902B
:100BB00018951F920F920FB60F9211242F933F9307
:100BC0004F935F936F937F938F939F93AF93BF9355
:100BD000EF93FF93E0915801F0915901309709F09C
:100BE00009950E943D05FF91EF91BF91AF919F91B3
:100BF0008F917F916F915F914F913F912F910F90C6
:100C00000FBE0F901F90189589B990BD8AB18B7F48
:100C10008AB986E880BD8AB180618AB98AB1886064
:100C20008AB908955D9BFECF8CB908955F9BFECF76
:100C30005C9906C05B9906C05A9906C08CB10895AC
:100C40008FEF08958FEF08958FEF08958BB1881F70
:100C50008827881F08950F931F93CF93DF938C01EC
:100C6000D62FC0E007C0F801EC0FF11D80810E9473
:100C70001206CF5FCD17B8F3DF91CF911F910F917F
:100C800008951F920F920FB60F9211242F933F9346
:100C90004F935F936F937F938F939F93AF93BF9384
:100CA000EF93FF93E0916001F0916101309709F0BB
:100CB0000995FF91EF91BF91AF919F918F917F9196
:100CC0006F915F914F913F912F910F900FBE0F90B9
:100CD0001F9018951F920F920FB60F9211242F9309
:100CE0003F934F935F936F937F938F939F93AF93B4
:100CF000BF93EF93FF93E0915C01F0915D0130971A
:100D000009F00995FF91EF91BF91AF919F918F915C
:100D10007F916F915F914F913F912F910F900FBEF7
:100D20000F901F9018951F920F920FB60F921124DB
:100D30002F933F934F935F936F937F938F939F93E3
:100D4000AF93BF93EF93FF93E0915E01F0915F014A
:100D5000309709F00995FF91EF91BF91AF919F9165
:100D60008F917F916F915F914F913F912F910F9054
:0C0D70000FBE0F901F901895F894FFCF55
:100D7C00456E7465722050617373776F72643A00BC
:100D8C0052652D456E74657220506173733A000084
:100D9C00536C61766520697320427573790000008D
:100DAC0043726561746520537563636573732100C9
:100DBC00437265617465204572726F722100000088
:100DCC0031203A204F70656E20446F6F7200000026
:100DDC0032203A204368616E67652050617373005E
:100DEC00446F6F72204F70656E696E672100000052
:100DFC00446F6F72206973204F70656E2100000084
:100E0C00446F6F7220436C6F73696E672100000032
:100E1C0057726F6E672050617373776F7264210025
:100E2C0054727920416761696E0000000000000077
:100E3C0053797374656D206973204C6F636B6564B3
:100E4C00504C4541534520574149542100373839BE
:0E0E5C002F3435362A3132332D23303D2B0012
:00000001FF
